{
  "_format": "hh-sol-artifact-1",
  "contractName": "DisputeDAO",
  "sourceName": "contracts/DisputeDAO.sol",
  "abi": [
    {
      "anonymous": false,
      "inputs": [
        {
          "indexed": true,
          "internalType": "uint256",
          "name": "proposalId",
          "type": "uint256"
        },
        {
          "indexed": false,
          "internalType": "uint256",
          "name": "jobId",
          "type": "uint256"
        },
        {
          "indexed": false,
          "internalType": "string",
          "name": "description",
          "type": "string"
        }
      ],
      "name": "ProposalCreated",
      "type": "event"
    },
    {
      "anonymous": false,
      "inputs": [
        {
          "indexed": true,
          "internalType": "uint256",
          "name": "proposalId",
          "type": "uint256"
        },
        {
          "indexed": true,
          "internalType": "address",
          "name": "voter",
          "type": "address"
        },
        {
          "indexed": false,
          "internalType": "bool",
          "name": "support",
          "type": "bool"
        }
      ],
      "name": "Voted",
      "type": "event"
    },
    {
      "inputs": [
        {
          "internalType": "uint256",
          "name": "jobId",
          "type": "uint256"
        },
        {
          "internalType": "string",
          "name": "description",
          "type": "string"
        }
      ],
      "name": "createProposal",
      "outputs": [
        {
          "internalType": "uint256",
          "name": "",
          "type": "uint256"
        }
      ],
      "stateMutability": "nonpayable",
      "type": "function"
    },
    {
      "inputs": [
        {
          "internalType": "uint256",
          "name": "proposalId",
          "type": "uint256"
        }
      ],
      "name": "execute",
      "outputs": [],
      "stateMutability": "nonpayable",
      "type": "function"
    },
    {
      "inputs": [],
      "name": "proposalCount",
      "outputs": [
        {
          "internalType": "uint256",
          "name": "",
          "type": "uint256"
        }
      ],
      "stateMutability": "view",
      "type": "function"
    },
    {
      "inputs": [
        {
          "internalType": "uint256",
          "name": "",
          "type": "uint256"
        }
      ],
      "name": "proposals",
      "outputs": [
        {
          "internalType": "uint256",
          "name": "jobId",
          "type": "uint256"
        },
        {
          "internalType": "string",
          "name": "description",
          "type": "string"
        },
        {
          "internalType": "uint256",
          "name": "yesVotes",
          "type": "uint256"
        },
        {
          "internalType": "uint256",
          "name": "noVotes",
          "type": "uint256"
        },
        {
          "internalType": "bool",
          "name": "executed",
          "type": "bool"
        }
      ],
      "stateMutability": "view",
      "type": "function"
    },
    {
      "inputs": [
        {
          "internalType": "uint256",
          "name": "proposalId",
          "type": "uint256"
        },
        {
          "internalType": "bool",
          "name": "support",
          "type": "bool"
        }
      ],
      "name": "vote",
      "outputs": [],
      "stateMutability": "nonpayable",
      "type": "function"
    }
  ],
  "bytecode": "0x6080604052348015600f57600080fd5b50610e3d8061001f6000396000f3fe608060405234801561001057600080fd5b50600436106100575760003560e01c8063013cf08b1461005c57806302d52fa414610090578063c9d27afe146100c0578063da35c664146100dc578063fe0d94c1146100fa575b600080fd5b61007660048036038101906100719190610596565b610116565b60405161008795949392919061067d565b60405180910390f35b6100aa60048036038101906100a5919061080c565b6101e1565b6040516100b79190610868565b60405180910390f35b6100da60048036038101906100d591906108af565b610271565b005b6100e4610456565b6040516100f19190610868565b60405180910390f35b610114600480360381019061010f9190610596565b61045c565b005b600060205280600052604060002060009150905080600001549080600101805461013f9061091e565b80601f016020809104026020016040519081016040528092919081815260200182805461016b9061091e565b80156101b85780601f1061018d576101008083540402835291602001916101b8565b820191906000526020600020905b81548152906001019060200180831161019b57829003601f168201915b5050505050908060020154908060030154908060050160009054906101000a900460ff16905085565b60008060008060015481526020019081526020016000209050838160000181905550828160010190816102149190610afb565b506001547f7aade497c2cd4241d757f694370d0e4a250bfa251b3ab287406b2ab58d3fdad68585604051610249929190610bcd565b60405180910390a26001600081548092919061026490610c2c565b9190505591505092915050565b600080600084815260200190815260200160002090508060040160003373ffffffffffffffffffffffffffffffffffffffff1673ffffffffffffffffffffffffffffffffffffffff16815260200190815260200160002060009054906101000a900460ff1615610316576040517f08c379a000000000000000000000000000000000000000000000000000000000815260040161030d90610cc0565b60405180910390fd5b8060050160009054906101000a900460ff1615610368576040517f08c379a000000000000000000000000000000000000000000000000000000000815260040161035f90610d2c565b60405180910390fd5b60018160040160003373ffffffffffffffffffffffffffffffffffffffff1673ffffffffffffffffffffffffffffffffffffffff16815260200190815260200160002060006101000a81548160ff02191690831515021790555081156103e7578060020160008154809291906103dd90610c2c565b9190505550610402565b8060030160008154809291906103fc90610c2c565b91905055505b3373ffffffffffffffffffffffffffffffffffffffff16837ff2913dbe661ee2acc4a046d8fbcdc792373bda34c41c6086484b5345e5785e5f846040516104499190610d4c565b60405180910390a3505050565b60015481565b600080600083815260200190815260200160002090508060050160009054906101000a900460ff16156104c4576040517f08c379a00000000000000000000000000000000000000000000000000000000081526004016104bb90610d2c565b60405180910390fd5b6000816003015482600201546104da9190610d67565b1161051a576040517f08c379a000000000000000000000000000000000000000000000000000000000815260040161051190610de7565b60405180910390fd5b8060030154816002015411156105485760018160050160006101000a81548160ff0219169083151502179055505b5050565b6000604051905090565b600080fd5b600080fd5b6000819050919050565b61057381610560565b811461057e57600080fd5b50565b6000813590506105908161056a565b92915050565b6000602082840312156105ac576105ab610556565b5b60006105ba84828501610581565b91505092915050565b6105cc81610560565b82525050565b600081519050919050565b600082825260208201905092915050565b60005b8381101561060c5780820151818401526020810190506105f1565b60008484015250505050565b6000601f19601f8301169050919050565b6000610634826105d2565b61063e81856105dd565b935061064e8185602086016105ee565b61065781610618565b840191505092915050565b60008115159050919050565b61067781610662565b82525050565b600060a08201905061069260008301886105c3565b81810360208301526106a48187610629565b90506106b360408301866105c3565b6106c060608301856105c3565b6106cd608083018461066e565b9695505050505050565b600080fd5b600080fd5b7f4e487b7100000000000000000000000000000000000000000000000000000000600052604160045260246000fd5b61071982610618565b810181811067ffffffffffffffff82111715610738576107376106e1565b5b80604052505050565b600061074b61054c565b90506107578282610710565b919050565b600067ffffffffffffffff821115610777576107766106e1565b5b61078082610618565b9050602081019050919050565b82818337600083830152505050565b60006107af6107aa8461075c565b610741565b9050828152602081018484840111156107cb576107ca6106dc565b5b6107d684828561078d565b509392505050565b600082601f8301126107f3576107f26106d7565b5b813561080384826020860161079c565b91505092915050565b6000806040838503121561082357610822610556565b5b600061083185828601610581565b925050602083013567ffffffffffffffff8111156108525761085161055b565b5b61085e858286016107de565b9150509250929050565b600060208201905061087d60008301846105c3565b92915050565b61088c81610662565b811461089757600080fd5b50565b6000813590506108a981610883565b92915050565b600080604083850312156108c6576108c5610556565b5b60006108d485828601610581565b92505060206108e58582860161089a565b9150509250929050565b7f4e487b7100000000000000000000000000000000000000000000000000000000600052602260045260246000fd5b6000600282049050600182168061093657607f821691505b602082108103610949576109486108ef565b5b50919050565b60008190508160005260206000209050919050565b60006020601f8301049050919050565b600082821b905092915050565b6000600883026109b17fffffffffffffffffffffffffffffffffffffffffffffffffffffffffffffffff82610974565b6109bb8683610974565b95508019841693508086168417925050509392505050565b6000819050919050565b60006109f86109f36109ee84610560565b6109d3565b610560565b9050919050565b6000819050919050565b610a12836109dd565b610a26610a1e826109ff565b848454610981565b825550505050565b600090565b610a3b610a2e565b610a46818484610a09565b505050565b5b81811015610a6a57610a5f600082610a33565b600181019050610a4c565b5050565b601f821115610aaf57610a808161094f565b610a8984610964565b81016020851015610a98578190505b610aac610aa485610964565b830182610a4b565b50505b505050565b600082821c905092915050565b6000610ad260001984600802610ab4565b1980831691505092915050565b6000610aeb8383610ac1565b9150826002028217905092915050565b610b04826105d2565b67ffffffffffffffff811115610b1d57610b1c6106e1565b5b610b27825461091e565b610b32828285610a6e565b600060209050601f831160018114610b655760008415610b53578287015190505b610b5d8582610adf565b865550610bc5565b601f198416610b738661094f565b60005b82811015610b9b57848901518255600182019150602085019450602081019050610b76565b86831015610bb85784890151610bb4601f891682610ac1565b8355505b6001600288020188555050505b505050505050565b6000604082019050610be260008301856105c3565b8181036020830152610bf48184610629565b90509392505050565b7f4e487b7100000000000000000000000000000000000000000000000000000000600052601160045260246000fd5b6000610c3782610560565b91507fffffffffffffffffffffffffffffffffffffffffffffffffffffffffffffffff8203610c6957610c68610bfd565b5b600182019050919050565b7f416c726561647920766f74656400000000000000000000000000000000000000600082015250565b6000610caa600d836105dd565b9150610cb582610c74565b602082019050919050565b60006020820190508181036000830152610cd981610c9d565b9050919050565b7f416c726561647920657865637574656400000000000000000000000000000000600082015250565b6000610d166010836105dd565b9150610d2182610ce0565b602082019050919050565b60006020820190508181036000830152610d4581610d09565b9050919050565b6000602082019050610d61600083018461066e565b92915050565b6000610d7282610560565b9150610d7d83610560565b9250828201905080821115610d9557610d94610bfd565b5b92915050565b7f4e6f20766f746573000000000000000000000000000000000000000000000000600082015250565b6000610dd16008836105dd565b9150610ddc82610d9b565b602082019050919050565b60006020820190508181036000830152610e0081610dc4565b905091905056fea26469706673582212202af77d65e68a76aa200a730ca9e30ef32be1132442c93aa08e629cc5375e708864736f6c634300081c0033",
  "linkReferences": {},
  "deployedLinkReferences": {}
}