{
  "_format": "hh-sol-artifact-1",
  "contractName": "DisputeDAO",
  "sourceName": "contracts/DisputeDAO.sol",
  "abi": [
    {
      "anonymous": false,
      "inputs": [
        {
          "indexed": true,
          "internalType": "uint256",
          "name": "disputeId",
          "type": "uint256"
        },
        {
          "indexed": true,
          "internalType": "address",
          "name": "client",
          "type": "address"
        },
        {
          "indexed": true,
          "internalType": "address",
          "name": "freelancer",
          "type": "address"
        },
        {
          "indexed": false,
          "internalType": "string",
          "name": "reason",
          "type": "string"
        }
      ],
      "name": "DisputeCreated",
      "type": "event"
    },
    {
      "anonymous": false,
      "inputs": [
        {
          "indexed": true,
          "internalType": "uint256",
          "name": "disputeId",
          "type": "uint256"
        },
        {
          "indexed": false,
          "internalType": "bool",
          "name": "resolvedInFavor",
          "type": "bool"
        }
      ],
      "name": "DisputeResolved",
      "type": "event"
    },
    {
      "anonymous": false,
      "inputs": [
        {
          "indexed": true,
          "internalType": "uint256",
          "name": "disputeId",
          "type": "uint256"
        },
        {
          "indexed": true,
          "internalType": "address",
          "name": "voter",
          "type": "address"
        },
        {
          "indexed": false,
          "internalType": "uint256",
          "name": "vote",
          "type": "uint256"
        }
      ],
      "name": "Voted",
      "type": "event"
    },
    {
      "inputs": [
        {
          "internalType": "address",
          "name": "freelancer",
          "type": "address"
        },
        {
          "internalType": "string",
          "name": "reason",
          "type": "string"
        }
      ],
      "name": "createDispute",
      "outputs": [
        {
          "internalType": "uint256",
          "name": "",
          "type": "uint256"
        }
      ],
      "stateMutability": "payable",
      "type": "function"
    },
    {
      "inputs": [],
      "name": "disputeCount",
      "outputs": [
        {
          "internalType": "uint256",
          "name": "",
          "type": "uint256"
        }
      ],
      "stateMutability": "view",
      "type": "function"
    },
    {
      "inputs": [
        {
          "internalType": "uint256",
          "name": "",
          "type": "uint256"
        }
      ],
      "name": "disputes",
      "outputs": [
        {
          "internalType": "uint256",
          "name": "jobId",
          "type": "uint256"
        },
        {
          "internalType": "address",
          "name": "client",
          "type": "address"
        },
        {
          "internalType": "address",
          "name": "freelancer",
          "type": "address"
        },
        {
          "internalType": "string",
          "name": "reason",
          "type": "string"
        },
        {
          "internalType": "uint256",
          "name": "votesClient",
          "type": "uint256"
        },
        {
          "internalType": "uint256",
          "name": "votesFreelancer",
          "type": "uint256"
        },
        {
          "internalType": "bool",
          "name": "resolved",
          "type": "bool"
        },
        {
          "internalType": "bool",
          "name": "exists",
          "type": "bool"
        }
      ],
      "stateMutability": "view",
      "type": "function"
    },
    {
      "inputs": [],
      "name": "registerAsJuror",
      "outputs": [],
      "stateMutability": "nonpayable",
      "type": "function"
    },
    {
      "inputs": [
        {
          "internalType": "uint256",
          "name": "disputeId",
          "type": "uint256"
        }
      ],
      "name": "resolveDispute",
      "outputs": [],
      "stateMutability": "nonpayable",
      "type": "function"
    },
    {
      "inputs": [
        {
          "internalType": "uint256",
          "name": "disputeId",
          "type": "uint256"
        },
        {
          "internalType": "uint256",
          "name": "vote",
          "type": "uint256"
        }
      ],
      "name": "voteOnDispute",
      "outputs": [],
      "stateMutability": "nonpayable",
      "type": "function"
    }
  ],
  "bytecode": "0x6080604052348015600f57600080fd5b506115928061001f6000396000f3fe6080604052600436106100555760003560e01c8063564a565d1461005a57806371929ad51461009e57806375a4a503146100b5578063a28889e1146100de578063c2b7b86814610109578063ead3489a14610132575b600080fd5b34801561006657600080fd5b50610081600480360381019061007c9190610a05565b610162565b604051610095989796959493929190610b2d565b60405180910390f35b3480156100aa57600080fd5b506100b361028c565b005b3480156100c157600080fd5b506100dc60048036038101906100d79190610bb2565b61028e565b005b3480156100ea57600080fd5b506100f3610515565b6040516101009190610bf2565b60405180910390f35b34801561011557600080fd5b50610130600480360381019061012b9190610a05565b61051b565b005b61014c60048036038101906101479190610d6e565b61076d565b6040516101599190610bf2565b60405180910390f35b60016020528060005260406000206000915090508060000154908060010160009054906101000a900473ffffffffffffffffffffffffffffffffffffffff16908060020160009054906101000a900473ffffffffffffffffffffffffffffffffffffffff16908060030180546101d790610df9565b80601f016020809104026020016040519081016040528092919081815260200182805461020390610df9565b80156102505780601f1061022557610100808354040283529160200191610250565b820191906000526020600020905b81548152906001019060200180831161023357829003601f168201915b5050505050908060040154908060050154908060070160009054906101000a900460ff16908060070160019054906101000a900460ff16905088565b565b60006001600084815260200190815260200160002090508060070160019054906101000a900460ff166102f6576040517f08c379a00000000000000000000000000000000000000000000000000000000081526004016102ed90610e76565b60405180910390fd5b8060060160003373ffffffffffffffffffffffffffffffffffffffff1673ffffffffffffffffffffffffffffffffffffffff16815260200190815260200160002060009054906101000a900460ff1615610385576040517f08c379a000000000000000000000000000000000000000000000000000000000815260040161037c90610ee2565b60405180910390fd5b8060070160009054906101000a900460ff16156103d7576040517f08c379a00000000000000000000000000000000000000000000000000000000081526004016103ce90610f4e565b60405180910390fd5b60018214806103e65750600282145b610425576040517f08c379a000000000000000000000000000000000000000000000000000000000815260040161041c90610fe0565b60405180910390fd5b60018160060160003373ffffffffffffffffffffffffffffffffffffffff1673ffffffffffffffffffffffffffffffffffffffff16815260200190815260200160002060006101000a81548160ff021916908315150217905550600182036104a65780600401600081548092919061049c9061102f565b91905055506104c1565b8060050160008154809291906104bb9061102f565b91905055505b3373ffffffffffffffffffffffffffffffffffffffff16837f1abe610cf2bf87e57dcc1181fcf5ac0934e843d8344ab9eed6e86c799f62585e846040516105089190610bf2565b60405180910390a3505050565b60005481565b60006001600083815260200190815260200160002090508060070160019054906101000a900460ff16610583576040517f08c379a000000000000000000000000000000000000000000000000000000000815260040161057a90610e76565b60405180910390fd5b8060070160009054906101000a900460ff16156105d5576040517f08c379a00000000000000000000000000000000000000000000000000000000081526004016105cc90610f4e565b60405180910390fd5b6000816005015482600401546105eb9190611077565b1161062b576040517f08c379a0000000000000000000000000000000000000000000000000000000008152600401610622906110f7565b60405180910390fd5b60018160070160006101000a81548160ff02191690831515021790555060008160050154826004015410159050827f5a87909bff68caaaaf0b3fd9c74eeccc928832f879315e5c6fb7a73612f26c0c826040516106889190611117565b60405180910390a280156107685760008260010160009054906101000a900473ffffffffffffffffffffffffffffffffffffffff1673ffffffffffffffffffffffffffffffffffffffff16476040516106e090611163565b60006040518083038185875af1925050503d806000811461071d576040519150601f19603f3d011682016040523d82523d6000602084013e610722565b606091505b5050905080610766576040517f08c379a000000000000000000000000000000000000000000000000000000000815260040161075d906111c4565b60405180910390fd5b505b505050565b60008073ffffffffffffffffffffffffffffffffffffffff168373ffffffffffffffffffffffffffffffffffffffff16036107dd576040517f08c379a00000000000000000000000000000000000000000000000000000000081526004016107d490611230565b60405180910390fd5b66b1a2bc2ec50000341015610827576040517f08c379a000000000000000000000000000000000000000000000000000000000815260040161081e9061129c565b60405180910390fd5b6000808154809291906108399061102f565b91905055506000600160008054815260200190815260200160002090506000548160000181905550338160010160006101000a81548173ffffffffffffffffffffffffffffffffffffffff021916908373ffffffffffffffffffffffffffffffffffffffff160217905550838160020160006101000a81548173ffffffffffffffffffffffffffffffffffffffff021916908373ffffffffffffffffffffffffffffffffffffffff160217905550828160030190816108f89190611468565b50600081600401819055506000816005018190555060008160070160006101000a81548160ff02191690831515021790555060018160070160016101000a81548160ff0219169083151502179055508373ffffffffffffffffffffffffffffffffffffffff163373ffffffffffffffffffffffffffffffffffffffff166000547ff5a652e9be4dc80976de59ea0ab8ef105314d3e99785ac7ed699796f04364f1a866040516109a7919061153a565b60405180910390a460005491505092915050565b6000604051905090565b600080fd5b600080fd5b6000819050919050565b6109e2816109cf565b81146109ed57600080fd5b50565b6000813590506109ff816109d9565b92915050565b600060208284031215610a1b57610a1a6109c5565b5b6000610a29848285016109f0565b91505092915050565b610a3b816109cf565b82525050565b600073ffffffffffffffffffffffffffffffffffffffff82169050919050565b6000610a6c82610a41565b9050919050565b610a7c81610a61565b82525050565b600081519050919050565b600082825260208201905092915050565b60005b83811015610abc578082015181840152602081019050610aa1565b60008484015250505050565b6000601f19601f8301169050919050565b6000610ae482610a82565b610aee8185610a8d565b9350610afe818560208601610a9e565b610b0781610ac8565b840191505092915050565b60008115159050919050565b610b2781610b12565b82525050565b600061010082019050610b43600083018b610a32565b610b50602083018a610a73565b610b5d6040830189610a73565b8181036060830152610b6f8188610ad9565b9050610b7e6080830187610a32565b610b8b60a0830186610a32565b610b9860c0830185610b1e565b610ba560e0830184610b1e565b9998505050505050505050565b60008060408385031215610bc957610bc86109c5565b5b6000610bd7858286016109f0565b9250506020610be8858286016109f0565b9150509250929050565b6000602082019050610c076000830184610a32565b92915050565b610c1681610a61565b8114610c2157600080fd5b50565b600081359050610c3381610c0d565b92915050565b600080fd5b600080fd5b7f4e487b7100000000000000000000000000000000000000000000000000000000600052604160045260246000fd5b610c7b82610ac8565b810181811067ffffffffffffffff82111715610c9a57610c99610c43565b5b80604052505050565b6000610cad6109bb565b9050610cb98282610c72565b919050565b600067ffffffffffffffff821115610cd957610cd8610c43565b5b610ce282610ac8565b9050602081019050919050565b82818337600083830152505050565b6000610d11610d0c84610cbe565b610ca3565b905082815260208101848484011115610d2d57610d2c610c3e565b5b610d38848285610cef565b509392505050565b600082601f830112610d5557610d54610c39565b5b8135610d65848260208601610cfe565b91505092915050565b60008060408385031215610d8557610d846109c5565b5b6000610d9385828601610c24565b925050602083013567ffffffffffffffff811115610db457610db36109ca565b5b610dc085828601610d40565b9150509250929050565b7f4e487b7100000000000000000000000000000000000000000000000000000000600052602260045260246000fd5b60006002820490506001821680610e1157607f821691505b602082108103610e2457610e23610dca565b5b50919050565b7f4469737075746520646f6573206e6f7420657869737400000000000000000000600082015250565b6000610e60601683610a8d565b9150610e6b82610e2a565b602082019050919050565b60006020820190508181036000830152610e8f81610e53565b9050919050565b7f416c726561647920766f74656400000000000000000000000000000000000000600082015250565b6000610ecc600d83610a8d565b9150610ed782610e96565b602082019050919050565b60006020820190508181036000830152610efb81610ebf565b9050919050565b7f4469737075746520616c7265616479207265736f6c7665640000000000000000600082015250565b6000610f38601883610a8d565b9150610f4382610f02565b602082019050919050565b60006020820190508181036000830152610f6781610f2b565b9050919050565b7f496e76616c696420766f74653a203120666f7220436c69656e742c203220666f60008201527f7220467265656c616e6365720000000000000000000000000000000000000000602082015250565b6000610fca602c83610a8d565b9150610fd582610f6e565b604082019050919050565b60006020820190508181036000830152610ff981610fbd565b9050919050565b7f4e487b7100000000000000000000000000000000000000000000000000000000600052601160045260246000fd5b600061103a826109cf565b91507fffffffffffffffffffffffffffffffffffffffffffffffffffffffffffffffff820361106c5761106b611000565b5b600182019050919050565b6000611082826109cf565b915061108d836109cf565b92508282019050808211156110a5576110a4611000565b5b92915050565b7f4e6f20766f746573000000000000000000000000000000000000000000000000600082015250565b60006110e1600883610a8d565b91506110ec826110ab565b602082019050919050565b60006020820190508181036000830152611110816110d4565b9050919050565b600060208201905061112c6000830184610b1e565b92915050565b600081905092915050565b50565b600061114d600083611132565b91506111588261113d565b600082019050919050565b600061116e82611140565b9150819050919050565b7f526566756e64206661696c656400000000000000000000000000000000000000600082015250565b60006111ae600d83610a8d565b91506111b982611178565b602082019050919050565b600060208201905081810360008301526111dd816111a1565b9050919050565b7f496e76616c696420667265656c616e6365722061646472657373000000000000600082015250565b600061121a601a83610a8d565b9150611225826111e4565b602082019050919050565b600060208201905081810360008301526112498161120d565b9050919050565b7f4d696e696d756d20302e30352045544820726571756972656400000000000000600082015250565b6000611286601983610a8d565b915061129182611250565b602082019050919050565b600060208201905081810360008301526112b581611279565b9050919050565b60008190508160005260206000209050919050565b60006020601f8301049050919050565b600082821b905092915050565b60006008830261131e7fffffffffffffffffffffffffffffffffffffffffffffffffffffffffffffffff826112e1565b61132886836112e1565b95508019841693508086168417925050509392505050565b6000819050919050565b600061136561136061135b846109cf565b611340565b6109cf565b9050919050565b6000819050919050565b61137f8361134a565b61139361138b8261136c565b8484546112ee565b825550505050565b600090565b6113a861139b565b6113b3818484611376565b505050565b5b818110156113d7576113cc6000826113a0565b6001810190506113b9565b5050565b601f82111561141c576113ed816112bc565b6113f6846112d1565b81016020851015611405578190505b611419611411856112d1565b8301826113b8565b50505b505050565b600082821c905092915050565b600061143f60001984600802611421565b1980831691505092915050565b6000611458838361142e565b9150826002028217905092915050565b61147182610a82565b67ffffffffffffffff81111561148a57611489610c43565b5b6114948254610df9565b61149f8282856113db565b600060209050601f8311600181146114d257600084156114c0578287015190505b6114ca858261144c565b865550611532565b601f1984166114e0866112bc565b60005b82811015611508578489015182556001820191506020850194506020810190506114e3565b868310156115255784890151611521601f89168261142e565b8355505b6001600288020188555050505b505050505050565b600060208201905081810360008301526115548184610ad9565b90509291505056fea2646970667358221220964e948d38e341c7b4a3d13827dcf6cc5787f2f86a93adc0fcfac245021f86eb64736f6c634300081c0033",
  "linkReferences": {},
  "deployedLinkReferences": {}
}