{
  "_format": "hh-sol-artifact-1",
  "contractName": "Escrow",
  "sourceName": "contracts/Escrow.sol",
  "abi": [
    {
      "inputs": [
        {
          "internalType": "address",
          "name": "_arbiter",
          "type": "address"
        }
      ],
      "stateMutability": "nonpayable",
      "type": "constructor"
    },
    {
      "inputs": [],
      "name": "ReentrancyGuardReentrantCall",
      "type": "error"
    },
    {
      "anonymous": false,
      "inputs": [
        {
          "indexed": true,
          "internalType": "uint256",
          "name": "jobId",
          "type": "uint256"
        }
      ],
      "name": "DeliverySubmitted",
      "type": "event"
    },
    {
      "anonymous": false,
      "inputs": [
        {
          "indexed": true,
          "internalType": "uint256",
          "name": "jobId",
          "type": "uint256"
        }
      ],
      "name": "Disputed",
      "type": "event"
    },
    {
      "anonymous": false,
      "inputs": [
        {
          "indexed": true,
          "internalType": "uint256",
          "name": "jobId",
          "type": "uint256"
        }
      ],
      "name": "JobConfirmed",
      "type": "event"
    },
    {
      "anonymous": false,
      "inputs": [
        {
          "indexed": true,
          "internalType": "uint256",
          "name": "jobId",
          "type": "uint256"
        },
        {
          "indexed": true,
          "internalType": "address",
          "name": "client",
          "type": "address"
        },
        {
          "indexed": false,
          "internalType": "uint256",
          "name": "amount",
          "type": "uint256"
        },
        {
          "indexed": false,
          "internalType": "enum Escrow.EscrowType",
          "name": "escrowType",
          "type": "uint8"
        }
      ],
      "name": "JobCreated",
      "type": "event"
    },
    {
      "anonymous": false,
      "inputs": [
        {
          "indexed": true,
          "internalType": "uint256",
          "name": "jobId",
          "type": "uint256"
        },
        {
          "indexed": false,
          "internalType": "uint256",
          "name": "amount",
          "type": "uint256"
        }
      ],
      "name": "JobFunded",
      "type": "event"
    },
    {
      "anonymous": false,
      "inputs": [
        {
          "indexed": true,
          "internalType": "uint256",
          "name": "jobId",
          "type": "uint256"
        }
      ],
      "name": "Refunded",
      "type": "event"
    },
    {
      "anonymous": false,
      "inputs": [
        {
          "indexed": true,
          "internalType": "address",
          "name": "to",
          "type": "address"
        },
        {
          "indexed": false,
          "internalType": "uint256",
          "name": "amount",
          "type": "uint256"
        }
      ],
      "name": "Withdrawn",
      "type": "event"
    },
    {
      "inputs": [],
      "name": "arbiter",
      "outputs": [
        {
          "internalType": "address",
          "name": "",
          "type": "address"
        }
      ],
      "stateMutability": "view",
      "type": "function"
    },
    {
      "inputs": [
        {
          "internalType": "uint256",
          "name": "jobId",
          "type": "uint256"
        }
      ],
      "name": "confirmDelivery",
      "outputs": [],
      "stateMutability": "nonpayable",
      "type": "function"
    },
    {
      "inputs": [
        {
          "internalType": "address",
          "name": "_freelancer",
          "type": "address"
        },
        {
          "internalType": "uint256",
          "name": "_amount",
          "type": "uint256"
        },
        {
          "internalType": "uint256",
          "name": "_deadline",
          "type": "uint256"
        },
        {
          "internalType": "uint256[]",
          "name": "_milestones",
          "type": "uint256[]"
        },
        {
          "internalType": "enum Escrow.EscrowType",
          "name": "_escrowType",
          "type": "uint8"
        }
      ],
      "name": "createJob",
      "outputs": [
        {
          "internalType": "uint256",
          "name": "",
          "type": "uint256"
        }
      ],
      "stateMutability": "nonpayable",
      "type": "function"
    },
    {
      "inputs": [
        {
          "internalType": "uint256",
          "name": "jobId",
          "type": "uint256"
        }
      ],
      "name": "dispute",
      "outputs": [],
      "stateMutability": "nonpayable",
      "type": "function"
    },
    {
      "inputs": [],
      "name": "feePercent",
      "outputs": [
        {
          "internalType": "uint256",
          "name": "",
          "type": "uint256"
        }
      ],
      "stateMutability": "view",
      "type": "function"
    },
    {
      "inputs": [
        {
          "internalType": "uint256",
          "name": "jobId",
          "type": "uint256"
        }
      ],
      "name": "fundJob",
      "outputs": [],
      "stateMutability": "payable",
      "type": "function"
    },
    {
      "inputs": [
        {
          "internalType": "uint256",
          "name": "",
          "type": "uint256"
        }
      ],
      "name": "jobs",
      "outputs": [
        {
          "internalType": "uint256",
          "name": "jobId",
          "type": "uint256"
        },
        {
          "internalType": "address",
          "name": "client",
          "type": "address"
        },
        {
          "internalType": "address",
          "name": "freelancer",
          "type": "address"
        },
        {
          "internalType": "uint256",
          "name": "amount",
          "type": "uint256"
        },
        {
          "internalType": "uint256",
          "name": "deadline",
          "type": "uint256"
        },
        {
          "internalType": "uint256",
          "name": "currentMilestone",
          "type": "uint256"
        },
        {
          "internalType": "enum Escrow.EscrowType",
          "name": "escrowType",
          "type": "uint8"
        },
        {
          "internalType": "enum Escrow.Status",
          "name": "status",
          "type": "uint8"
        },
        {
          "internalType": "bool",
          "name": "delivered",
          "type": "bool"
        },
        {
          "internalType": "bool",
          "name": "confirmed",
          "type": "bool"
        }
      ],
      "stateMutability": "view",
      "type": "function"
    },
    {
      "inputs": [
        {
          "internalType": "uint256",
          "name": "jobId",
          "type": "uint256"
        }
      ],
      "name": "refund",
      "outputs": [],
      "stateMutability": "nonpayable",
      "type": "function"
    },
    {
      "inputs": [
        {
          "internalType": "uint256",
          "name": "jobId",
          "type": "uint256"
        }
      ],
      "name": "submitDelivery",
      "outputs": [],
      "stateMutability": "nonpayable",
      "type": "function"
    },
    {
      "inputs": [],
      "name": "totalJobs",
      "outputs": [
        {
          "internalType": "uint256",
          "name": "",
          "type": "uint256"
        }
      ],
      "stateMutability": "view",
      "type": "function"
    }
  ],
  "bytecode": "0x6080604052600260015534801561001557600080fd5b50604051611f5a380380611f5a833981810160405281019061003791906100e9565b600160008190555080600360006101000a81548173ffffffffffffffffffffffffffffffffffffffff021916908373ffffffffffffffffffffffffffffffffffffffff16021790555050610116565b600080fd5b600073ffffffffffffffffffffffffffffffffffffffff82169050919050565b60006100b68261008b565b9050919050565b6100c6816100ab565b81146100d157600080fd5b50565b6000815190506100e3816100bd565b92915050565b6000602082840312156100ff576100fe610086565b5b600061010d848285016100d4565b91505092915050565b611e35806101256000396000f3fe6080604052600436106100915760003560e01c80638d22b863116100595780638d22b863146101845780639ee414dc146101a0578063d0cfc171146101c9578063fd84cb9714610206578063fe25e00a1461022f57610091565b8063180aedf3146100965780631ace87b3146100dc578063278ecde1146101075780637fd6f15c1461013057806386d6282c1461015b575b600080fd5b3480156100a257600080fd5b506100bd60048036038101906100b8919061124c565b61025a565b6040516100d39a999897969594939291906113a3565b60405180910390f35b3480156100e857600080fd5b506100f1610322565b6040516100fe919061143f565b60405180910390f35b34801561011357600080fd5b5061012e6004803603810190610129919061124c565b610328565b005b34801561013c57600080fd5b5061014561057a565b604051610152919061143f565b60405180910390f35b34801561016757600080fd5b50610182600480360381019061017d919061124c565b610580565b005b61019e6004803603810190610199919061124c565b610759565b005b3480156101ac57600080fd5b506101c760048036038101906101c2919061124c565b61094d565b005b3480156101d557600080fd5b506101f060048036038101906101eb9190611604565b610afd565b6040516101fd919061143f565b60405180910390f35b34801561021257600080fd5b5061022d6004803603810190610228919061124c565b610e59565b005b34801561023b57600080fd5b50610244611122565b604051610251919061169b565b60405180910390f35b60046020528060005260406000206000915090508060000154908060010160009054906101000a900473ffffffffffffffffffffffffffffffffffffffff16908060020160009054906101000a900473ffffffffffffffffffffffffffffffffffffffff16908060030154908060040154908060060154908060070160009054906101000a900460ff16908060070160019054906101000a900460ff16908060070160029054906101000a900460ff16908060070160039054906101000a900460ff1690508a565b60025481565b6000600460008381526020019081526020016000209050600360009054906101000a900473ffffffffffffffffffffffffffffffffffffffff1673ffffffffffffffffffffffffffffffffffffffff163373ffffffffffffffffffffffffffffffffffffffff16146103cf576040517f08c379a00000000000000000000000000000000000000000000000000000000081526004016103c690611713565b60405180910390fd5b600460068111156103e3576103e26112c9565b5b8160070160019054906101000a900460ff166006811115610407576104066112c9565b5b14610447576040517f08c379a000000000000000000000000000000000000000000000000000000000815260040161043e9061177f565b60405180910390fd5b60008160010160009054906101000a900473ffffffffffffffffffffffffffffffffffffffff1673ffffffffffffffffffffffffffffffffffffffff168260030154604051610495906117d0565b60006040518083038185875af1925050503d80600081146104d2576040519150601f19603f3d011682016040523d82523d6000602084013e6104d7565b606091505b505090508061051b576040517f08c379a000000000000000000000000000000000000000000000000000000000815260040161051290611831565b60405180910390fd5b60058260070160016101000a81548160ff02191690836006811115610543576105426112c9565b5b0217905550827f3d2a04f53164bedf9a8a46353305d6b2d2261410406df3b41f99ce6489dc003c60405160405180910390a2505050565b60015481565b60006004600083815260200190815260200160002090508060010160009054906101000a900473ffffffffffffffffffffffffffffffffffffffff1673ffffffffffffffffffffffffffffffffffffffff163373ffffffffffffffffffffffffffffffffffffffff16148061064457508060020160009054906101000a900473ffffffffffffffffffffffffffffffffffffffff1673ffffffffffffffffffffffffffffffffffffffff163373ffffffffffffffffffffffffffffffffffffffff16145b610683576040517f08c379a000000000000000000000000000000000000000000000000000000000815260040161067a9061189d565b60405180910390fd5b60026006811115610697576106966112c9565b5b8160070160019054906101000a900460ff1660068111156106bb576106ba6112c9565b5b146106fb576040517f08c379a00000000000000000000000000000000000000000000000000000000081526004016106f290611909565b60405180910390fd5b60048160070160016101000a81548160ff02191690836006811115610723576107226112c9565b5b0217905550817f7e3d476b0ad3176eefadbd6672356ef3884fad75f1344623a88d4a808784233660405160405180910390a25050565b806004600082815260200190815260200160002060010160009054906101000a900473ffffffffffffffffffffffffffffffffffffffff1673ffffffffffffffffffffffffffffffffffffffff163373ffffffffffffffffffffffffffffffffffffffff16146107fe576040517f08c379a00000000000000000000000000000000000000000000000000000000081526004016107f590611975565b60405180910390fd5b610806611148565b600060046000848152602001908152602001600020905060006006811115610831576108306112c9565b5b8160070160019054906101000a900460ff166006811115610855576108546112c9565b5b14610895576040517f08c379a000000000000000000000000000000000000000000000000000000000815260040161088c906119e1565b60405180910390fd5b806003015434146108db576040517f08c379a00000000000000000000000000000000000000000000000000000000081526004016108d290611a4d565b60405180910390fd5b60018160070160016101000a81548160ff02191690836006811115610903576109026112c9565b5b0217905550827f9d25c5cf940eed311c45e5a0b4c7c8790a356d3c356453b76bb7e232db3f384a34604051610938919061143f565b60405180910390a25061094961118e565b5050565b806004600082815260200190815260200160002060020160009054906101000a900473ffffffffffffffffffffffffffffffffffffffff1673ffffffffffffffffffffffffffffffffffffffff163373ffffffffffffffffffffffffffffffffffffffff16146109f2576040517f08c379a00000000000000000000000000000000000000000000000000000000081526004016109e990611ab9565b60405180910390fd5b600060046000848152602001908152602001600020905060016006811115610a1d57610a1c6112c9565b5b8160070160019054906101000a900460ff166006811115610a4157610a406112c9565b5b14610a81576040517f08c379a0000000000000000000000000000000000000000000000000000000008152600401610a7890611b25565b60405180910390fd5b60018160070160026101000a81548160ff02191690831515021790555060028160070160016101000a81548160ff02191690836006811115610ac657610ac56112c9565b5b0217905550827fe27f31ac90e483819b8000bb2d4d6a52523484f3e087cb7745b9e528df129d9060405160405180910390a2505050565b60008073ffffffffffffffffffffffffffffffffffffffff168673ffffffffffffffffffffffffffffffffffffffff1603610b6d576040517f08c379a0000000000000000000000000000000000000000000000000000000008152600401610b6490611b91565b60405180910390fd5b60008511610bb0576040517f08c379a0000000000000000000000000000000000000000000000000000000008152600401610ba790611bfd565b60405180910390fd5b600060026000815480929190610bc590611c4c565b9190505590506040518061016001604052808281526020013373ffffffffffffffffffffffffffffffffffffffff1681526020018873ffffffffffffffffffffffffffffffffffffffff16815260200187815260200186815260200185815260200160008152602001846001811115610c4157610c406112c9565b5b815260200160006006811115610c5a57610c596112c9565b5b815260200160001515815260200160001515815250600460008381526020019081526020016000206000820151816000015560208201518160010160006101000a81548173ffffffffffffffffffffffffffffffffffffffff021916908373ffffffffffffffffffffffffffffffffffffffff16021790555060408201518160020160006101000a81548173ffffffffffffffffffffffffffffffffffffffff021916908373ffffffffffffffffffffffffffffffffffffffff160217905550606082015181600301556080820151816004015560a0820151816005019080519060200190610d4a929190611198565b5060c0820151816006015560e08201518160070160006101000a81548160ff02191690836001811115610d8057610d7f6112c9565b5b02179055506101008201518160070160016101000a81548160ff02191690836006811115610db157610db06112c9565b5b02179055506101208201518160070160026101000a81548160ff0219169083151502179055506101408201518160070160036101000a81548160ff0219169083151502179055509050503373ffffffffffffffffffffffffffffffffffffffff16817f0d2c8fcc4063d003ae85f4744d066eb1a53fad6897a6de794bbfb12fd8baed598886604051610e44929190611c94565b60405180910390a38091505095945050505050565b806004600082815260200190815260200160002060010160009054906101000a900473ffffffffffffffffffffffffffffffffffffffff1673ffffffffffffffffffffffffffffffffffffffff163373ffffffffffffffffffffffffffffffffffffffff1614610efe576040517f08c379a0000000000000000000000000000000000000000000000000000000008152600401610ef590611975565b60405180910390fd5b610f06611148565b600060046000848152602001908152602001600020905060026006811115610f3157610f306112c9565b5b8160070160019054906101000a900460ff166006811115610f5557610f546112c9565b5b14610f95576040517f08c379a0000000000000000000000000000000000000000000000000000000008152600401610f8c90611909565b60405180910390fd5b600060646001548360030154610fab9190611cbd565b610fb59190611d2e565b90506000818360030154610fc99190611d5f565b905060008360020160009054906101000a900473ffffffffffffffffffffffffffffffffffffffff1673ffffffffffffffffffffffffffffffffffffffff1682604051611015906117d0565b60006040518083038185875af1925050503d8060008114611052576040519150601f19603f3d011682016040523d82523d6000602084013e611057565b606091505b505090508061109b576040517f08c379a000000000000000000000000000000000000000000000000000000000815260040161109290611ddf565b60405180910390fd5b60018460070160036101000a81548160ff02191690831515021790555060038460070160016101000a81548160ff021916908360068111156110e0576110df6112c9565b5b0217905550857f3e2bbea7940a98048faa503e943be810bedce9781f8c46eb6fb1f38032841ae060405160405180910390a25050505061111e61118e565b5050565b600360009054906101000a900473ffffffffffffffffffffffffffffffffffffffff1681565b600260005403611184576040517f3ee5aeb500000000000000000000000000000000000000000000000000000000815260040160405180910390fd5b6002600081905550565b6001600081905550565b8280548282559060005260206000209081019282156111d4579160200282015b828111156111d35782518255916020019190600101906111b8565b5b5090506111e191906111e5565b5090565b5b808211156111fe5760008160009055506001016111e6565b5090565b6000604051905090565b600080fd5b600080fd5b6000819050919050565b61122981611216565b811461123457600080fd5b50565b60008135905061124681611220565b92915050565b6000602082840312156112625761126161120c565b5b600061127084828501611237565b91505092915050565b61128281611216565b82525050565b600073ffffffffffffffffffffffffffffffffffffffff82169050919050565b60006112b382611288565b9050919050565b6112c3816112a8565b82525050565b7f4e487b7100000000000000000000000000000000000000000000000000000000600052602160045260246000fd5b60028110611309576113086112c9565b5b50565b600081905061131a826112f8565b919050565b600061132a8261130c565b9050919050565b61133a8161131f565b82525050565b60078110611351576113506112c9565b5b50565b600081905061136282611340565b919050565b600061137282611354565b9050919050565b61138281611367565b82525050565b60008115159050919050565b61139d81611388565b82525050565b6000610140820190506113b9600083018d611279565b6113c6602083018c6112ba565b6113d3604083018b6112ba565b6113e0606083018a611279565b6113ed6080830189611279565b6113fa60a0830188611279565b61140760c0830187611331565b61141460e0830186611379565b611422610100830185611394565b611430610120830184611394565b9b9a5050505050505050505050565b60006020820190506114546000830184611279565b92915050565b611463816112a8565b811461146e57600080fd5b50565b6000813590506114808161145a565b92915050565b600080fd5b6000601f19601f8301169050919050565b7f4e487b7100000000000000000000000000000000000000000000000000000000600052604160045260246000fd5b6114d48261148b565b810181811067ffffffffffffffff821117156114f3576114f261149c565b5b80604052505050565b6000611506611202565b905061151282826114cb565b919050565b600067ffffffffffffffff8211156115325761153161149c565b5b602082029050602081019050919050565b600080fd5b600061155b61155684611517565b6114fc565b9050808382526020820190506020840283018581111561157e5761157d611543565b5b835b818110156115a757806115938882611237565b845260208401935050602081019050611580565b5050509392505050565b600082601f8301126115c6576115c5611486565b5b81356115d6848260208601611548565b91505092915050565b600281106115ec57600080fd5b50565b6000813590506115fe816115df565b92915050565b600080600080600060a086880312156116205761161f61120c565b5b600061162e88828901611471565b955050602061163f88828901611237565b945050604061165088828901611237565b935050606086013567ffffffffffffffff81111561167157611670611211565b5b61167d888289016115b1565b925050608061168e888289016115ef565b9150509295509295909350565b60006020820190506116b060008301846112ba565b92915050565b600082825260208201905092915050565b7f4f6e6c7920617262697465720000000000000000000000000000000000000000600082015250565b60006116fd600c836116b6565b9150611708826116c7565b602082019050919050565b6000602082019050818103600083015261172c816116f0565b9050919050565b7f4e6f742064697370757465640000000000000000000000000000000000000000600082015250565b6000611769600c836116b6565b915061177482611733565b602082019050919050565b600060208201905081810360008301526117988161175c565b9050919050565b600081905092915050565b50565b60006117ba60008361179f565b91506117c5826117aa565b600082019050919050565b60006117db826117ad565b9150819050919050565b7f526566756e64206661696c656400000000000000000000000000000000000000600082015250565b600061181b600d836116b6565b9150611826826117e5565b602082019050919050565b6000602082019050818103600083015261184a8161180e565b9050919050565b7f4e6f74207061727469636970616e740000000000000000000000000000000000600082015250565b6000611887600f836116b6565b915061189282611851565b602082019050919050565b600060208201905081810360008301526118b68161187a565b9050919050565b7f4e6f742064656c69766572656400000000000000000000000000000000000000600082015250565b60006118f3600d836116b6565b91506118fe826118bd565b602082019050919050565b60006020820190508181036000830152611922816118e6565b9050919050565b7f4e6f7420636c69656e7400000000000000000000000000000000000000000000600082015250565b600061195f600a836116b6565b915061196a82611929565b602082019050919050565b6000602082019050818103600083015261198e81611952565b9050919050565b7f4a6f62206e6f74206f70656e0000000000000000000000000000000000000000600082015250565b60006119cb600c836116b6565b91506119d682611995565b602082019050919050565b600060208201905081810360008301526119fa816119be565b9050919050565b7f496e636f727265637420616d6f756e7400000000000000000000000000000000600082015250565b6000611a376010836116b6565b9150611a4282611a01565b602082019050919050565b60006020820190508181036000830152611a6681611a2a565b9050919050565b7f4e6f7420667265656c616e636572000000000000000000000000000000000000600082015250565b6000611aa3600e836116b6565b9150611aae82611a6d565b602082019050919050565b60006020820190508181036000830152611ad281611a96565b9050919050565b7f4a6f62206e6f742070656e64696e670000000000000000000000000000000000600082015250565b6000611b0f600f836116b6565b9150611b1a82611ad9565b602082019050919050565b60006020820190508181036000830152611b3e81611b02565b9050919050565b7f496e76616c696420667265656c616e6365720000000000000000000000000000600082015250565b6000611b7b6012836116b6565b9150611b8682611b45565b602082019050919050565b60006020820190508181036000830152611baa81611b6e565b9050919050565b7f416d6f756e74206d757374206265203e20300000000000000000000000000000600082015250565b6000611be76012836116b6565b9150611bf282611bb1565b602082019050919050565b60006020820190508181036000830152611c1681611bda565b9050919050565b7f4e487b7100000000000000000000000000000000000000000000000000000000600052601160045260246000fd5b6000611c5782611216565b91507fffffffffffffffffffffffffffffffffffffffffffffffffffffffffffffffff8203611c8957611c88611c1d565b5b600182019050919050565b6000604082019050611ca96000830185611279565b611cb66020830184611331565b9392505050565b6000611cc882611216565b9150611cd383611216565b9250828202611ce181611216565b91508282048414831517611cf857611cf7611c1d565b5b5092915050565b7f4e487b7100000000000000000000000000000000000000000000000000000000600052601260045260246000fd5b6000611d3982611216565b9150611d4483611216565b925082611d5457611d53611cff565b5b828204905092915050565b6000611d6a82611216565b9150611d7583611216565b9250828203905081811115611d8d57611d8c611c1d565b5b92915050565b7f5061796d656e74206661696c6564000000000000000000000000000000000000600082015250565b6000611dc9600e836116b6565b9150611dd482611d93565b602082019050919050565b60006020820190508181036000830152611df881611dbc565b905091905056fea2646970667358221220d536594dc3624d46d3d8f9a8efd1dfdb9db37ff49b711ce9705a73d856f4b5e864736f6c634300081c0033",
  "linkReferences": {},
  "deployedLinkReferences": {}
}