{
  "_format": "hh-sol-artifact-1",
  "contractName": "Escrow",
  "sourceName": "contracts/Escrow.sol",
  "abi": [
    {
      "inputs": [
        {
          "internalType": "address",
          "name": "_repTokenAddress",
          "type": "address"
        }
      ],
      "stateMutability": "nonpayable",
      "type": "constructor"
    },
    {
      "inputs": [],
      "name": "ReentrancyGuardReentrantCall",
      "type": "error"
    },
    {
      "anonymous": false,
      "inputs": [
        {
          "indexed": true,
          "internalType": "uint256",
          "name": "jobId",
          "type": "uint256"
        }
      ],
      "name": "DeliveryConfirmed",
      "type": "event"
    },
    {
      "anonymous": false,
      "inputs": [
        {
          "indexed": true,
          "internalType": "uint256",
          "name": "jobId",
          "type": "uint256"
        },
        {
          "indexed": false,
          "internalType": "string",
          "name": "deliveryUrl",
          "type": "string"
        }
      ],
      "name": "DeliverySubmitted",
      "type": "event"
    },
    {
      "anonymous": false,
      "inputs": [
        {
          "indexed": true,
          "internalType": "uint256",
          "name": "jobId",
          "type": "uint256"
        },
        {
          "indexed": true,
          "internalType": "address",
          "name": "client",
          "type": "address"
        },
        {
          "indexed": true,
          "internalType": "address",
          "name": "freelancer",
          "type": "address"
        },
        {
          "indexed": false,
          "internalType": "uint256",
          "name": "amount",
          "type": "uint256"
        }
      ],
      "name": "JobCreated",
      "type": "event"
    },
    {
      "anonymous": false,
      "inputs": [
        {
          "indexed": true,
          "internalType": "uint256",
          "name": "jobId",
          "type": "uint256"
        }
      ],
      "name": "JobDisputed",
      "type": "event"
    },
    {
      "anonymous": false,
      "inputs": [
        {
          "indexed": true,
          "internalType": "uint256",
          "name": "jobId",
          "type": "uint256"
        },
        {
          "indexed": false,
          "internalType": "uint256",
          "name": "amount",
          "type": "uint256"
        }
      ],
      "name": "JobFunded",
      "type": "event"
    },
    {
      "inputs": [],
      "name": "REP_REWARD",
      "outputs": [
        {
          "internalType": "uint256",
          "name": "",
          "type": "uint256"
        }
      ],
      "stateMutability": "view",
      "type": "function"
    },
    {
      "inputs": [
        {
          "internalType": "uint256",
          "name": "jobId",
          "type": "uint256"
        }
      ],
      "name": "confirmDelivery",
      "outputs": [],
      "stateMutability": "nonpayable",
      "type": "function"
    },
    {
      "inputs": [
        {
          "internalType": "address",
          "name": "freelancer",
          "type": "address"
        },
        {
          "internalType": "uint256",
          "name": "amount",
          "type": "uint256"
        }
      ],
      "name": "createJob",
      "outputs": [
        {
          "internalType": "uint256",
          "name": "",
          "type": "uint256"
        }
      ],
      "stateMutability": "nonpayable",
      "type": "function"
    },
    {
      "inputs": [
        {
          "internalType": "uint256",
          "name": "jobId",
          "type": "uint256"
        }
      ],
      "name": "dispute",
      "outputs": [],
      "stateMutability": "nonpayable",
      "type": "function"
    },
    {
      "inputs": [
        {
          "internalType": "uint256",
          "name": "jobId",
          "type": "uint256"
        }
      ],
      "name": "fundJob",
      "outputs": [],
      "stateMutability": "payable",
      "type": "function"
    },
    {
      "inputs": [],
      "name": "jobCount",
      "outputs": [
        {
          "internalType": "uint256",
          "name": "",
          "type": "uint256"
        }
      ],
      "stateMutability": "view",
      "type": "function"
    },
    {
      "inputs": [
        {
          "internalType": "uint256",
          "name": "",
          "type": "uint256"
        }
      ],
      "name": "jobs",
      "outputs": [
        {
          "internalType": "address",
          "name": "client",
          "type": "address"
        },
        {
          "internalType": "address",
          "name": "freelancer",
          "type": "address"
        },
        {
          "internalType": "uint256",
          "name": "amount",
          "type": "uint256"
        },
        {
          "internalType": "uint256",
          "name": "status",
          "type": "uint256"
        },
        {
          "internalType": "string",
          "name": "deliveryUrl",
          "type": "string"
        },
        {
          "internalType": "bool",
          "name": "repMinted",
          "type": "bool"
        }
      ],
      "stateMutability": "view",
      "type": "function"
    },
    {
      "inputs": [
        {
          "internalType": "uint256",
          "name": "jobId",
          "type": "uint256"
        }
      ],
      "name": "refund",
      "outputs": [],
      "stateMutability": "nonpayable",
      "type": "function"
    },
    {
      "inputs": [],
      "name": "repToken",
      "outputs": [
        {
          "internalType": "contract ReputationToken",
          "name": "",
          "type": "address"
        }
      ],
      "stateMutability": "view",
      "type": "function"
    },
    {
      "inputs": [
        {
          "internalType": "uint256",
          "name": "jobId",
          "type": "uint256"
        },
        {
          "internalType": "string",
          "name": "deliveryUrl",
          "type": "string"
        }
      ],
      "name": "submitDelivery",
      "outputs": [],
      "stateMutability": "nonpayable",
      "type": "function"
    }
  ],
  "bytecode": "0x608060405234801561001057600080fd5b5060405161212038038061212083398181016040528101906100329190610153565b6001600081905550600073ffffffffffffffffffffffffffffffffffffffff168173ffffffffffffffffffffffffffffffffffffffff16036100a9576040517f08c379a00000000000000000000000000000000000000000000000000000000081526004016100a0906101dd565b60405180910390fd5b80600360006101000a81548173ffffffffffffffffffffffffffffffffffffffff021916908373ffffffffffffffffffffffffffffffffffffffff160217905550506101fd565b600080fd5b600073ffffffffffffffffffffffffffffffffffffffff82169050919050565b6000610120826100f5565b9050919050565b61013081610115565b811461013b57600080fd5b50565b60008151905061014d81610127565b92915050565b600060208284031215610169576101686100f0565b5b60006101778482850161013e565b91505092915050565b600082825260208201905092915050565b7f496e76616c69642052657075746174696f6e546f6b656e206164647265737300600082015250565b60006101c7601f83610180565b91506101d282610191565b602082019050919050565b600060208201905081810360008301526101f6816101ba565b9050919050565b611f148061020c6000396000f3fe6080604052600436106100915760003560e01c8063618d1d4a11610059578063618d1d4a146101945780637b141f2e146101bd57806386d6282c146101e85780638d22b86314610211578063fd84cb971461022d57610091565b8063180aedf314610096578063278ecde1146100d857806329034a5c146101015780633f2a66f81461012c5780634c5d8a0f14610169575b600080fd5b3480156100a257600080fd5b506100bd60048036038101906100b891906110ac565b610256565b6040516100cf969594939291906111d4565b60405180910390f35b3480156100e457600080fd5b506100ff60048036038101906100fa91906110ac565b610367565b005b34801561010d57600080fd5b506101166104b8565b604051610123919061129b565b60405180910390f35b34801561013857600080fd5b50610153600480360381019061014e91906112e2565b6104de565b6040516101609190611322565b60405180910390f35b34801561017557600080fd5b5061017e610778565b60405161018b9190611322565b60405180910390f35b3480156101a057600080fd5b506101bb60048036038101906101b69190611472565b61077e565b005b3480156101c957600080fd5b506101d26108d7565b6040516101df9190611322565b60405180910390f35b3480156101f457600080fd5b5061020f600480360381019061020a91906110ac565b6108e3565b005b61022b600480360381019061022691906110ac565b610b87565b005b34801561023957600080fd5b50610254600480360381019061024f91906110ac565b610d13565b005b60026020528060005260406000206000915090508060000160009054906101000a900473ffffffffffffffffffffffffffffffffffffffff16908060010160009054906101000a900473ffffffffffffffffffffffffffffffffffffffff16908060020154908060030154908060040180546102d1906114fd565b80601f01602080910402602001604051908101604052809291908181526020018280546102fd906114fd565b801561034a5780601f1061031f5761010080835404028352916020019161034a565b820191906000526020600020905b81548152906001019060200180831161032d57829003601f168201915b5050505050908060050160009054906101000a900460ff16905086565b61036f611012565b600060026000838152602001908152602001600020905060048160030154146103cd576040517f08c379a00000000000000000000000000000000000000000000000000000000081526004016103c49061157a565b60405180910390fd5b60008160000160009054906101000a900473ffffffffffffffffffffffffffffffffffffffff1673ffffffffffffffffffffffffffffffffffffffff16826002015460405161041b906115cb565b60006040518083038185875af1925050503d8060008114610458576040519150601f19603f3d011682016040523d82523d6000602084013e61045d565b606091505b50509050806104a1576040517f08c379a00000000000000000000000000000000000000000000000000000000081526004016104989061162c565b60405180910390fd5b6003826003018190555050506104b5611058565b50565b600360009054906101000a900473ffffffffffffffffffffffffffffffffffffffff1681565b60008073ffffffffffffffffffffffffffffffffffffffff168373ffffffffffffffffffffffffffffffffffffffff160361054e576040517f08c379a000000000000000000000000000000000000000000000000000000000815260040161054590611698565b60405180910390fd5b60008211610591576040517f08c379a000000000000000000000000000000000000000000000000000000000815260040161058890611704565b60405180910390fd5b600160008154809291906105a490611753565b91905055506040518060c001604052803373ffffffffffffffffffffffffffffffffffffffff1681526020018473ffffffffffffffffffffffffffffffffffffffff168152602001838152602001600081526020016040518060200160405280600081525081526020016000151581525060026000600154815260200190815260200160002060008201518160000160006101000a81548173ffffffffffffffffffffffffffffffffffffffff021916908373ffffffffffffffffffffffffffffffffffffffff16021790555060208201518160010160006101000a81548173ffffffffffffffffffffffffffffffffffffffff021916908373ffffffffffffffffffffffffffffffffffffffff160217905550604082015181600201556060820151816003015560808201518160040190816106e1919061193d565b5060a08201518160050160006101000a81548160ff0219169083151502179055509050508273ffffffffffffffffffffffffffffffffffffffff163373ffffffffffffffffffffffffffffffffffffffff166001547f8f4ee83cefe0dfb2f73fe6057bfa5b233fc43358bbb5f5606f444cbd4c5c4f8c856040516107659190611322565b60405180910390a4600154905092915050565b60015481565b610786611012565b60006002600084815260200190815260200160002090503373ffffffffffffffffffffffffffffffffffffffff168160010160009054906101000a900473ffffffffffffffffffffffffffffffffffffffff1673ffffffffffffffffffffffffffffffffffffffff161461082f576040517f08c379a000000000000000000000000000000000000000000000000000000000815260040161082690611a5b565b60405180910390fd5b6001816003015414610876576040517f08c379a000000000000000000000000000000000000000000000000000000000815260040161086d90611ac7565b60405180910390fd5b81816004019081610887919061193d565b5060028160030181905550827f3d63a2f09d63ce38a08dcd12bbb0afe040adf05a3030cf4269dd6d0061c9e847836040516108c29190611ae7565b60405180910390a2506108d3611058565b5050565b678ac7230489e8000081565b6108eb611012565b60006002600083815260200190815260200160002090503373ffffffffffffffffffffffffffffffffffffffff168160000160009054906101000a900473ffffffffffffffffffffffffffffffffffffffff1673ffffffffffffffffffffffffffffffffffffffff1614806109af57503373ffffffffffffffffffffffffffffffffffffffff168160010160009054906101000a900473ffffffffffffffffffffffffffffffffffffffff1673ffffffffffffffffffffffffffffffffffffffff16145b6109ee576040517f08c379a00000000000000000000000000000000000000000000000000000000081526004016109e590611b7b565b60405180910390fd5b600281600301541480610a05575060038160030154145b610a44576040517f08c379a0000000000000000000000000000000000000000000000000000000008152600401610a3b90611c0d565b60405180910390fd5b60038160030154148015610a6657508060050160009054906101000a900460ff165b15610b4457600360009054906101000a900473ffffffffffffffffffffffffffffffffffffffff1673ffffffffffffffffffffffffffffffffffffffff16639dc29fac8260010160009054906101000a900473ffffffffffffffffffffffffffffffffffffffff16678ac7230489e800006040518363ffffffff1660e01b8152600401610af4929190611c2d565b600060405180830381600087803b158015610b0e57600080fd5b505af1158015610b22573d6000803e3d6000fd5b5050505060008160050160006101000a81548160ff0219169083151502179055505b60048160030181905550817fb1dee78cef8c6887046d91c59e17f84fbc012c9f7efa49a10cce97e13cc94bf460405160405180910390a250610b84611058565b50565b610b8f611012565b60006002600083815260200190815260200160002090503373ffffffffffffffffffffffffffffffffffffffff168160000160009054906101000a900473ffffffffffffffffffffffffffffffffffffffff1673ffffffffffffffffffffffffffffffffffffffff1614610c38576040517f08c379a0000000000000000000000000000000000000000000000000000000008152600401610c2f90611ca2565b60405180910390fd5b6000816003015414610c7f576040517f08c379a0000000000000000000000000000000000000000000000000000000008152600401610c7690611d0e565b60405180910390fd5b80600201543414610cc5576040517f08c379a0000000000000000000000000000000000000000000000000000000008152600401610cbc90611d7a565b60405180910390fd5b60018160030181905550817f9d25c5cf940eed311c45e5a0b4c7c8790a356d3c356453b76bb7e232db3f384a34604051610cff9190611322565b60405180910390a250610d10611058565b50565b610d1b611012565b60006002600083815260200190815260200160002090503373ffffffffffffffffffffffffffffffffffffffff168160000160009054906101000a900473ffffffffffffffffffffffffffffffffffffffff1673ffffffffffffffffffffffffffffffffffffffff1614610dc4576040517f08c379a0000000000000000000000000000000000000000000000000000000008152600401610dbb90611de6565b60405180910390fd5b6002816003015414610e0b576040517f08c379a0000000000000000000000000000000000000000000000000000000008152600401610e0290611e52565b60405180910390fd5b8060050160009054906101000a900460ff16610efa57600360009054906101000a900473ffffffffffffffffffffffffffffffffffffffff1673ffffffffffffffffffffffffffffffffffffffff166340c10f198260010160009054906101000a900473ffffffffffffffffffffffffffffffffffffffff16678ac7230489e800006040518363ffffffff1660e01b8152600401610eaa929190611c2d565b600060405180830381600087803b158015610ec457600080fd5b505af1158015610ed8573d6000803e3d6000fd5b5050505060018160050160006101000a81548160ff0219169083151502179055505b60008160010160009054906101000a900473ffffffffffffffffffffffffffffffffffffffff1673ffffffffffffffffffffffffffffffffffffffff168260020154604051610f48906115cb565b60006040518083038185875af1925050503d8060008114610f85576040519150601f19603f3d011682016040523d82523d6000602084013e610f8a565b606091505b5050905080610fce576040517f08c379a0000000000000000000000000000000000000000000000000000000008152600401610fc590611ebe565b60405180910390fd5b60038260030181905550827f375b4005eeae25d0e37d56e1b3841d3bb394b277efa2548de3293f5dcb7a349360405160405180910390a2505061100f611058565b50565b60026000540361104e576040517f3ee5aeb500000000000000000000000000000000000000000000000000000000815260040160405180910390fd5b6002600081905550565b6001600081905550565b6000604051905090565b600080fd5b600080fd5b6000819050919050565b61108981611076565b811461109457600080fd5b50565b6000813590506110a681611080565b92915050565b6000602082840312156110c2576110c161106c565b5b60006110d084828501611097565b91505092915050565b600073ffffffffffffffffffffffffffffffffffffffff82169050919050565b6000611104826110d9565b9050919050565b611114816110f9565b82525050565b61112381611076565b82525050565b600081519050919050565b600082825260208201905092915050565b60005b83811015611163578082015181840152602081019050611148565b60008484015250505050565b6000601f19601f8301169050919050565b600061118b82611129565b6111958185611134565b93506111a5818560208601611145565b6111ae8161116f565b840191505092915050565b60008115159050919050565b6111ce816111b9565b82525050565b600060c0820190506111e9600083018961110b565b6111f6602083018861110b565b611203604083018761111a565b611210606083018661111a565b81810360808301526112228185611180565b905061123160a08301846111c5565b979650505050505050565b6000819050919050565b600061126161125c611257846110d9565b61123c565b6110d9565b9050919050565b600061127382611246565b9050919050565b600061128582611268565b9050919050565b6112958161127a565b82525050565b60006020820190506112b0600083018461128c565b92915050565b6112bf816110f9565b81146112ca57600080fd5b50565b6000813590506112dc816112b6565b92915050565b600080604083850312156112f9576112f861106c565b5b6000611307858286016112cd565b925050602061131885828601611097565b9150509250929050565b6000602082019050611337600083018461111a565b92915050565b600080fd5b600080fd5b7f4e487b7100000000000000000000000000000000000000000000000000000000600052604160045260246000fd5b61137f8261116f565b810181811067ffffffffffffffff8211171561139e5761139d611347565b5b80604052505050565b60006113b1611062565b90506113bd8282611376565b919050565b600067ffffffffffffffff8211156113dd576113dc611347565b5b6113e68261116f565b9050602081019050919050565b82818337600083830152505050565b6000611415611410846113c2565b6113a7565b90508281526020810184848401111561143157611430611342565b5b61143c8482856113f3565b509392505050565b600082601f8301126114595761145861133d565b5b8135611469848260208601611402565b91505092915050565b600080604083850312156114895761148861106c565b5b600061149785828601611097565b925050602083013567ffffffffffffffff8111156114b8576114b7611071565b5b6114c485828601611444565b9150509250929050565b7f4e487b7100000000000000000000000000000000000000000000000000000000600052602260045260246000fd5b6000600282049050600182168061151557607f821691505b602082108103611528576115276114ce565b5b50919050565b7f4a6f62206e6f7420696e20446973707574656420737461746500000000000000600082015250565b6000611564601983611134565b915061156f8261152e565b602082019050919050565b6000602082019050818103600083015261159381611557565b9050919050565b600081905092915050565b50565b60006115b560008361159a565b91506115c0826115a5565b600082019050919050565b60006115d6826115a8565b9150819050919050565b7f526566756e64206661696c656400000000000000000000000000000000000000600082015250565b6000611616600d83611134565b9150611621826115e0565b602082019050919050565b6000602082019050818103600083015261164581611609565b9050919050565b7f496e76616c696420667265656c616e6365722061646472657373000000000000600082015250565b6000611682601a83611134565b915061168d8261164c565b602082019050919050565b600060208201905081810360008301526116b181611675565b9050919050565b7f416d6f756e74206d757374206265203e20300000000000000000000000000000600082015250565b60006116ee601283611134565b91506116f9826116b8565b602082019050919050565b6000602082019050818103600083015261171d816116e1565b9050919050565b7f4e487b7100000000000000000000000000000000000000000000000000000000600052601160045260246000fd5b600061175e82611076565b91507fffffffffffffffffffffffffffffffffffffffffffffffffffffffffffffffff82036117905761178f611724565b5b600182019050919050565b60008190508160005260206000209050919050565b60006020601f8301049050919050565b600082821b905092915050565b6000600883026117fd7fffffffffffffffffffffffffffffffffffffffffffffffffffffffffffffffff826117c0565b61180786836117c0565b95508019841693508086168417925050509392505050565b600061183a61183561183084611076565b61123c565b611076565b9050919050565b6000819050919050565b6118548361181f565b61186861186082611841565b8484546117cd565b825550505050565b600090565b61187d611870565b61188881848461184b565b505050565b5b818110156118ac576118a1600082611875565b60018101905061188e565b5050565b601f8211156118f1576118c28161179b565b6118cb846117b0565b810160208510156118da578190505b6118ee6118e6856117b0565b83018261188d565b50505b505050565b600082821c905092915050565b6000611914600019846008026118f6565b1980831691505092915050565b600061192d8383611903565b9150826002028217905092915050565b61194682611129565b67ffffffffffffffff81111561195f5761195e611347565b5b61196982546114fd565b6119748282856118b0565b600060209050601f8311600181146119a75760008415611995578287015190505b61199f8582611921565b865550611a07565b601f1984166119b58661179b565b60005b828110156119dd578489015182556001820191506020850194506020810190506119b8565b868310156119fa57848901516119f6601f891682611903565b8355505b6001600288020188555050505b505050505050565b7f4f6e6c7920667265656c616e6365722063616e207375626d6974000000000000600082015250565b6000611a45601a83611134565b9150611a5082611a0f565b602082019050919050565b60006020820190508181036000830152611a7481611a38565b9050919050565b7f4a6f62206e6f7420696e2046756e646564207374617465000000000000000000600082015250565b6000611ab1601783611134565b9150611abc82611a7b565b602082019050919050565b60006020820190508181036000830152611ae081611aa4565b9050919050565b60006020820190508181036000830152611b018184611180565b905092915050565b7f4f6e6c7920636c69656e74206f7220667265656c616e6365722063616e20646960008201527f7370757465000000000000000000000000000000000000000000000000000000602082015250565b6000611b65602583611134565b9150611b7082611b09565b604082019050919050565b60006020820190508181036000830152611b9481611b58565b9050919050565b7f4a6f62206d75737420626520696e2044656c697665726564206f7220436f6e6660008201527f69726d6564207374617465000000000000000000000000000000000000000000602082015250565b6000611bf7602b83611134565b9150611c0282611b9b565b604082019050919050565b60006020820190508181036000830152611c2681611bea565b9050919050565b6000604082019050611c42600083018561110b565b611c4f602083018461111a565b9392505050565b7f4f6e6c7920636c69656e742063616e2066756e64000000000000000000000000600082015250565b6000611c8c601483611134565b9150611c9782611c56565b602082019050919050565b60006020820190508181036000830152611cbb81611c7f565b9050919050565b7f4a6f62206e6f7420696e20437265617465642073746174650000000000000000600082015250565b6000611cf8601883611134565b9150611d0382611cc2565b602082019050919050565b60006020820190508181036000830152611d2781611ceb565b9050919050565b7f496e636f727265637420616d6f756e7400000000000000000000000000000000600082015250565b6000611d64601083611134565b9150611d6f82611d2e565b602082019050919050565b60006020820190508181036000830152611d9381611d57565b9050919050565b7f4f6e6c7920636c69656e742063616e20636f6e6669726d000000000000000000600082015250565b6000611dd0601783611134565b9150611ddb82611d9a565b602082019050919050565b60006020820190508181036000830152611dff81611dc3565b9050919050565b7f4a6f62206e6f7420696e2044656c697665726564207374617465000000000000600082015250565b6000611e3c601a83611134565b9150611e4782611e06565b602082019050919050565b60006020820190508181036000830152611e6b81611e2f565b9050919050565b7f5061796d656e74206661696c6564000000000000000000000000000000000000600082015250565b6000611ea8600e83611134565b9150611eb382611e72565b602082019050919050565b60006020820190508181036000830152611ed781611e9b565b905091905056fea2646970667358221220951cbebf3b20b16640ce732aaf99ebb6824c8bef530a228b85c95dab54e8a67c64736f6c634300081c0033",
  "linkReferences": {},
  "deployedLinkReferences": {}
}