{
  "_format": "hh-sol-artifact-1",
  "contractName": "Escrow",
  "sourceName": "contracts/Escrow.sol",
  "abi": [
    {
      "inputs": [],
      "stateMutability": "nonpayable",
      "type": "constructor"
    },
    {
      "inputs": [],
      "name": "ReentrancyGuardReentrantCall",
      "type": "error"
    },
    {
      "anonymous": false,
      "inputs": [
        {
          "indexed": true,
          "internalType": "uint256",
          "name": "jobId",
          "type": "uint256"
        }
      ],
      "name": "DeliveryConfirmed",
      "type": "event"
    },
    {
      "anonymous": false,
      "inputs": [
        {
          "indexed": true,
          "internalType": "uint256",
          "name": "jobId",
          "type": "uint256"
        },
        {
          "indexed": false,
          "internalType": "string",
          "name": "deliveryUrl",
          "type": "string"
        }
      ],
      "name": "DeliverySubmitted",
      "type": "event"
    },
    {
      "anonymous": false,
      "inputs": [
        {
          "indexed": true,
          "internalType": "uint256",
          "name": "jobId",
          "type": "uint256"
        },
        {
          "indexed": true,
          "internalType": "address",
          "name": "client",
          "type": "address"
        },
        {
          "indexed": true,
          "internalType": "address",
          "name": "freelancer",
          "type": "address"
        },
        {
          "indexed": false,
          "internalType": "uint256",
          "name": "amount",
          "type": "uint256"
        }
      ],
      "name": "JobCreated",
      "type": "event"
    },
    {
      "anonymous": false,
      "inputs": [
        {
          "indexed": true,
          "internalType": "uint256",
          "name": "jobId",
          "type": "uint256"
        }
      ],
      "name": "JobDisputed",
      "type": "event"
    },
    {
      "anonymous": false,
      "inputs": [
        {
          "indexed": true,
          "internalType": "uint256",
          "name": "jobId",
          "type": "uint256"
        },
        {
          "indexed": false,
          "internalType": "uint256",
          "name": "amount",
          "type": "uint256"
        }
      ],
      "name": "JobFunded",
      "type": "event"
    },
    {
      "inputs": [
        {
          "internalType": "uint256",
          "name": "jobId",
          "type": "uint256"
        }
      ],
      "name": "confirmDelivery",
      "outputs": [],
      "stateMutability": "nonpayable",
      "type": "function"
    },
    {
      "inputs": [
        {
          "internalType": "address",
          "name": "freelancer",
          "type": "address"
        },
        {
          "internalType": "uint256",
          "name": "amount",
          "type": "uint256"
        }
      ],
      "name": "createJob",
      "outputs": [
        {
          "internalType": "uint256",
          "name": "",
          "type": "uint256"
        }
      ],
      "stateMutability": "nonpayable",
      "type": "function"
    },
    {
      "inputs": [
        {
          "internalType": "uint256",
          "name": "jobId",
          "type": "uint256"
        }
      ],
      "name": "dispute",
      "outputs": [],
      "stateMutability": "nonpayable",
      "type": "function"
    },
    {
      "inputs": [
        {
          "internalType": "uint256",
          "name": "jobId",
          "type": "uint256"
        }
      ],
      "name": "fundJob",
      "outputs": [],
      "stateMutability": "payable",
      "type": "function"
    },
    {
      "inputs": [],
      "name": "jobCount",
      "outputs": [
        {
          "internalType": "uint256",
          "name": "",
          "type": "uint256"
        }
      ],
      "stateMutability": "view",
      "type": "function"
    },
    {
      "inputs": [
        {
          "internalType": "uint256",
          "name": "",
          "type": "uint256"
        }
      ],
      "name": "jobs",
      "outputs": [
        {
          "internalType": "address",
          "name": "client",
          "type": "address"
        },
        {
          "internalType": "address",
          "name": "freelancer",
          "type": "address"
        },
        {
          "internalType": "uint256",
          "name": "amount",
          "type": "uint256"
        },
        {
          "internalType": "uint256",
          "name": "status",
          "type": "uint256"
        },
        {
          "internalType": "string",
          "name": "deliveryUrl",
          "type": "string"
        }
      ],
      "stateMutability": "view",
      "type": "function"
    },
    {
      "inputs": [
        {
          "internalType": "uint256",
          "name": "jobId",
          "type": "uint256"
        }
      ],
      "name": "refund",
      "outputs": [],
      "stateMutability": "nonpayable",
      "type": "function"
    },
    {
      "inputs": [
        {
          "internalType": "uint256",
          "name": "jobId",
          "type": "uint256"
        },
        {
          "internalType": "string",
          "name": "deliveryUrl",
          "type": "string"
        }
      ],
      "name": "submitDelivery",
      "outputs": [],
      "stateMutability": "nonpayable",
      "type": "function"
    }
  ],
  "bytecode": "0x6080604052348015600f57600080fd5b506001600081905550611ae7806100276000396000f3fe60806040526004361061007b5760003560e01c8063618d1d4a1161004e578063618d1d4a1461015257806386d6282c1461017b5780638d22b863146101a4578063fd84cb97146101c05761007b565b8063180aedf314610080578063278ecde1146100c15780633f2a66f8146100ea5780634c5d8a0f14610127575b600080fd5b34801561008c57600080fd5b506100a760048036038101906100a29190610dd3565b6101e9565b6040516100b8959493929190610ee0565b60405180910390f35b3480156100cd57600080fd5b506100e860048036038101906100e39190610dd3565b6102e7565b005b3480156100f657600080fd5b50610111600480360381019061010c9190610f66565b610438565b60405161011e9190610fa6565b60405180910390f35b34801561013357600080fd5b5061013c6106a9565b6040516101499190610fa6565b60405180910390f35b34801561015e57600080fd5b50610179600480360381019061017491906110f6565b6106af565b005b34801561018757600080fd5b506101a2600480360381019061019d9190610dd3565b610808565b005b6101be60048036038101906101b99190610dd3565b61099d565b005b3480156101cc57600080fd5b506101e760048036038101906101e29190610dd3565b610b29565b005b60026020528060005260406000206000915090508060000160009054906101000a900473ffffffffffffffffffffffffffffffffffffffff16908060010160009054906101000a900473ffffffffffffffffffffffffffffffffffffffff169080600201549080600301549080600401805461026490611181565b80601f016020809104026020016040519081016040528092919081815260200182805461029090611181565b80156102dd5780601f106102b2576101008083540402835291602001916102dd565b820191906000526020600020905b8154815290600101906020018083116102c057829003601f168201915b5050505050905085565b6102ef610d39565b6000600260008381526020019081526020016000209050600481600301541461034d576040517f08c379a0000000000000000000000000000000000000000000000000000000008152600401610344906111fe565b60405180910390fd5b60008160000160009054906101000a900473ffffffffffffffffffffffffffffffffffffffff1673ffffffffffffffffffffffffffffffffffffffff16826002015460405161039b9061124f565b60006040518083038185875af1925050503d80600081146103d8576040519150601f19603f3d011682016040523d82523d6000602084013e6103dd565b606091505b5050905080610421576040517f08c379a0000000000000000000000000000000000000000000000000000000008152600401610418906112b0565b60405180910390fd5b600382600301819055505050610435610d7f565b50565b60008073ffffffffffffffffffffffffffffffffffffffff168373ffffffffffffffffffffffffffffffffffffffff16036104a8576040517f08c379a000000000000000000000000000000000000000000000000000000000815260040161049f9061131c565b60405180910390fd5b600082116104eb576040517f08c379a00000000000000000000000000000000000000000000000000000000081526004016104e290611388565b60405180910390fd5b600160008154809291906104fe906113d7565b91905055506040518060a001604052803373ffffffffffffffffffffffffffffffffffffffff1681526020018473ffffffffffffffffffffffffffffffffffffffff168152602001838152602001600081526020016040518060200160405280600081525081525060026000600154815260200190815260200160002060008201518160000160006101000a81548173ffffffffffffffffffffffffffffffffffffffff021916908373ffffffffffffffffffffffffffffffffffffffff16021790555060208201518160010160006101000a81548173ffffffffffffffffffffffffffffffffffffffff021916908373ffffffffffffffffffffffffffffffffffffffff1602179055506040820151816002015560608201518160030155608082015181600401908161063291906115cb565b509050508273ffffffffffffffffffffffffffffffffffffffff163373ffffffffffffffffffffffffffffffffffffffff166001547f8f4ee83cefe0dfb2f73fe6057bfa5b233fc43358bbb5f5606f444cbd4c5c4f8c856040516106969190610fa6565b60405180910390a4600154905092915050565b60015481565b6106b7610d39565b60006002600084815260200190815260200160002090503373ffffffffffffffffffffffffffffffffffffffff168160010160009054906101000a900473ffffffffffffffffffffffffffffffffffffffff1673ffffffffffffffffffffffffffffffffffffffff1614610760576040517f08c379a0000000000000000000000000000000000000000000000000000000008152600401610757906116e9565b60405180910390fd5b60018160030154146107a7576040517f08c379a000000000000000000000000000000000000000000000000000000000815260040161079e90611755565b60405180910390fd5b818160040190816107b891906115cb565b5060028160030181905550827f3d63a2f09d63ce38a08dcd12bbb0afe040adf05a3030cf4269dd6d0061c9e847836040516107f39190611775565b60405180910390a250610804610d7f565b5050565b610810610d39565b60006002600083815260200190815260200160002090503373ffffffffffffffffffffffffffffffffffffffff168160000160009054906101000a900473ffffffffffffffffffffffffffffffffffffffff1673ffffffffffffffffffffffffffffffffffffffff1614806108d457503373ffffffffffffffffffffffffffffffffffffffff168160010160009054906101000a900473ffffffffffffffffffffffffffffffffffffffff1673ffffffffffffffffffffffffffffffffffffffff16145b610913576040517f08c379a000000000000000000000000000000000000000000000000000000000815260040161090a90611809565b60405180910390fd5b600281600301541461095a576040517f08c379a000000000000000000000000000000000000000000000000000000000815260040161095190611875565b60405180910390fd5b60048160030181905550817fb1dee78cef8c6887046d91c59e17f84fbc012c9f7efa49a10cce97e13cc94bf460405160405180910390a25061099a610d7f565b50565b6109a5610d39565b60006002600083815260200190815260200160002090503373ffffffffffffffffffffffffffffffffffffffff168160000160009054906101000a900473ffffffffffffffffffffffffffffffffffffffff1673ffffffffffffffffffffffffffffffffffffffff1614610a4e576040517f08c379a0000000000000000000000000000000000000000000000000000000008152600401610a45906118e1565b60405180910390fd5b6000816003015414610a95576040517f08c379a0000000000000000000000000000000000000000000000000000000008152600401610a8c9061194d565b60405180910390fd5b80600201543414610adb576040517f08c379a0000000000000000000000000000000000000000000000000000000008152600401610ad2906119b9565b60405180910390fd5b60018160030181905550817f9d25c5cf940eed311c45e5a0b4c7c8790a356d3c356453b76bb7e232db3f384a34604051610b159190610fa6565b60405180910390a250610b26610d7f565b50565b610b31610d39565b60006002600083815260200190815260200160002090503373ffffffffffffffffffffffffffffffffffffffff168160000160009054906101000a900473ffffffffffffffffffffffffffffffffffffffff1673ffffffffffffffffffffffffffffffffffffffff1614610bda576040517f08c379a0000000000000000000000000000000000000000000000000000000008152600401610bd190611a25565b60405180910390fd5b6002816003015414610c21576040517f08c379a0000000000000000000000000000000000000000000000000000000008152600401610c1890611875565b60405180910390fd5b60008160010160009054906101000a900473ffffffffffffffffffffffffffffffffffffffff1673ffffffffffffffffffffffffffffffffffffffff168260020154604051610c6f9061124f565b60006040518083038185875af1925050503d8060008114610cac576040519150601f19603f3d011682016040523d82523d6000602084013e610cb1565b606091505b5050905080610cf5576040517f08c379a0000000000000000000000000000000000000000000000000000000008152600401610cec90611a91565b60405180910390fd5b60038260030181905550827f375b4005eeae25d0e37d56e1b3841d3bb394b277efa2548de3293f5dcb7a349360405160405180910390a25050610d36610d7f565b50565b600260005403610d75576040517f3ee5aeb500000000000000000000000000000000000000000000000000000000815260040160405180910390fd5b6002600081905550565b6001600081905550565b6000604051905090565b600080fd5b600080fd5b6000819050919050565b610db081610d9d565b8114610dbb57600080fd5b50565b600081359050610dcd81610da7565b92915050565b600060208284031215610de957610de8610d93565b5b6000610df784828501610dbe565b91505092915050565b600073ffffffffffffffffffffffffffffffffffffffff82169050919050565b6000610e2b82610e00565b9050919050565b610e3b81610e20565b82525050565b610e4a81610d9d565b82525050565b600081519050919050565b600082825260208201905092915050565b60005b83811015610e8a578082015181840152602081019050610e6f565b60008484015250505050565b6000601f19601f8301169050919050565b6000610eb282610e50565b610ebc8185610e5b565b9350610ecc818560208601610e6c565b610ed581610e96565b840191505092915050565b600060a082019050610ef56000830188610e32565b610f026020830187610e32565b610f0f6040830186610e41565b610f1c6060830185610e41565b8181036080830152610f2e8184610ea7565b90509695505050505050565b610f4381610e20565b8114610f4e57600080fd5b50565b600081359050610f6081610f3a565b92915050565b60008060408385031215610f7d57610f7c610d93565b5b6000610f8b85828601610f51565b9250506020610f9c85828601610dbe565b9150509250929050565b6000602082019050610fbb6000830184610e41565b92915050565b600080fd5b600080fd5b7f4e487b7100000000000000000000000000000000000000000000000000000000600052604160045260246000fd5b61100382610e96565b810181811067ffffffffffffffff8211171561102257611021610fcb565b5b80604052505050565b6000611035610d89565b90506110418282610ffa565b919050565b600067ffffffffffffffff82111561106157611060610fcb565b5b61106a82610e96565b9050602081019050919050565b82818337600083830152505050565b600061109961109484611046565b61102b565b9050828152602081018484840111156110b5576110b4610fc6565b5b6110c0848285611077565b509392505050565b600082601f8301126110dd576110dc610fc1565b5b81356110ed848260208601611086565b91505092915050565b6000806040838503121561110d5761110c610d93565b5b600061111b85828601610dbe565b925050602083013567ffffffffffffffff81111561113c5761113b610d98565b5b611148858286016110c8565b9150509250929050565b7f4e487b7100000000000000000000000000000000000000000000000000000000600052602260045260246000fd5b6000600282049050600182168061119957607f821691505b6020821081036111ac576111ab611152565b5b50919050565b7f4a6f62206e6f7420696e20446973707574656420737461746500000000000000600082015250565b60006111e8601983610e5b565b91506111f3826111b2565b602082019050919050565b60006020820190508181036000830152611217816111db565b9050919050565b600081905092915050565b50565b600061123960008361121e565b915061124482611229565b600082019050919050565b600061125a8261122c565b9150819050919050565b7f526566756e64206661696c656400000000000000000000000000000000000000600082015250565b600061129a600d83610e5b565b91506112a582611264565b602082019050919050565b600060208201905081810360008301526112c98161128d565b9050919050565b7f496e76616c696420667265656c616e6365722061646472657373000000000000600082015250565b6000611306601a83610e5b565b9150611311826112d0565b602082019050919050565b60006020820190508181036000830152611335816112f9565b9050919050565b7f416d6f756e74206d757374206265203e20300000000000000000000000000000600082015250565b6000611372601283610e5b565b915061137d8261133c565b602082019050919050565b600060208201905081810360008301526113a181611365565b9050919050565b7f4e487b7100000000000000000000000000000000000000000000000000000000600052601160045260246000fd5b60006113e282610d9d565b91507fffffffffffffffffffffffffffffffffffffffffffffffffffffffffffffffff8203611414576114136113a8565b5b600182019050919050565b60008190508160005260206000209050919050565b60006020601f8301049050919050565b600082821b905092915050565b6000600883026114817fffffffffffffffffffffffffffffffffffffffffffffffffffffffffffffffff82611444565b61148b8683611444565b95508019841693508086168417925050509392505050565b6000819050919050565b60006114c86114c36114be84610d9d565b6114a3565b610d9d565b9050919050565b6000819050919050565b6114e2836114ad565b6114f66114ee826114cf565b848454611451565b825550505050565b600090565b61150b6114fe565b6115168184846114d9565b505050565b5b8181101561153a5761152f600082611503565b60018101905061151c565b5050565b601f82111561157f576115508161141f565b61155984611434565b81016020851015611568578190505b61157c61157485611434565b83018261151b565b50505b505050565b600082821c905092915050565b60006115a260001984600802611584565b1980831691505092915050565b60006115bb8383611591565b9150826002028217905092915050565b6115d482610e50565b67ffffffffffffffff8111156115ed576115ec610fcb565b5b6115f78254611181565b61160282828561153e565b600060209050601f8311600181146116355760008415611623578287015190505b61162d85826115af565b865550611695565b601f1984166116438661141f565b60005b8281101561166b57848901518255600182019150602085019450602081019050611646565b868310156116885784890151611684601f891682611591565b8355505b6001600288020188555050505b505050505050565b7f4f6e6c7920667265656c616e6365722063616e207375626d6974000000000000600082015250565b60006116d3601a83610e5b565b91506116de8261169d565b602082019050919050565b60006020820190508181036000830152611702816116c6565b9050919050565b7f4a6f62206e6f7420696e2046756e646564207374617465000000000000000000600082015250565b600061173f601783610e5b565b915061174a82611709565b602082019050919050565b6000602082019050818103600083015261176e81611732565b9050919050565b6000602082019050818103600083015261178f8184610ea7565b905092915050565b7f4f6e6c7920636c69656e74206f7220667265656c616e6365722063616e20646960008201527f7370757465000000000000000000000000000000000000000000000000000000602082015250565b60006117f3602583610e5b565b91506117fe82611797565b604082019050919050565b60006020820190508181036000830152611822816117e6565b9050919050565b7f4a6f62206e6f7420696e2044656c697665726564207374617465000000000000600082015250565b600061185f601a83610e5b565b915061186a82611829565b602082019050919050565b6000602082019050818103600083015261188e81611852565b9050919050565b7f4f6e6c7920636c69656e742063616e2066756e64000000000000000000000000600082015250565b60006118cb601483610e5b565b91506118d682611895565b602082019050919050565b600060208201905081810360008301526118fa816118be565b9050919050565b7f4a6f62206e6f7420696e20437265617465642073746174650000000000000000600082015250565b6000611937601883610e5b565b915061194282611901565b602082019050919050565b600060208201905081810360008301526119668161192a565b9050919050565b7f496e636f727265637420616d6f756e7400000000000000000000000000000000600082015250565b60006119a3601083610e5b565b91506119ae8261196d565b602082019050919050565b600060208201905081810360008301526119d281611996565b9050919050565b7f4f6e6c7920636c69656e742063616e20636f6e6669726d000000000000000000600082015250565b6000611a0f601783610e5b565b9150611a1a826119d9565b602082019050919050565b60006020820190508181036000830152611a3e81611a02565b9050919050565b7f5061796d656e74206661696c6564000000000000000000000000000000000000600082015250565b6000611a7b600e83610e5b565b9150611a8682611a45565b602082019050919050565b60006020820190508181036000830152611aaa81611a6e565b905091905056fea2646970667358221220da314d945a1a482d6e14fd3c0d75a8231e8b443bdb7470c38149553e5b68461b64736f6c634300081c0033",
  "linkReferences": {},
  "deployedLinkReferences": {}
}