{
  "_format": "hh-sol-artifact-1",
  "contractName": "Escrow",
  "sourceName": "contracts/Escrow.sol",
  "abi": [
    {
      "inputs": [
        {
          "internalType": "address",
          "name": "_seller",
          "type": "address"
        },
        {
          "internalType": "address",
          "name": "_arbiter",
          "type": "address"
        }
      ],
      "stateMutability": "nonpayable",
      "type": "constructor"
    },
    {
      "inputs": [],
      "name": "amount",
      "outputs": [
        {
          "internalType": "uint256",
          "name": "",
          "type": "uint256"
        }
      ],
      "stateMutability": "view",
      "type": "function"
    },
    {
      "inputs": [],
      "name": "arbiter",
      "outputs": [
        {
          "internalType": "address",
          "name": "",
          "type": "address"
        }
      ],
      "stateMutability": "view",
      "type": "function"
    },
    {
      "inputs": [],
      "name": "buyer",
      "outputs": [
        {
          "internalType": "address",
          "name": "",
          "type": "address"
        }
      ],
      "stateMutability": "view",
      "type": "function"
    },
    {
      "inputs": [],
      "name": "confirmDelivery",
      "outputs": [],
      "stateMutability": "nonpayable",
      "type": "function"
    },
    {
      "inputs": [],
      "name": "deposit",
      "outputs": [],
      "stateMutability": "payable",
      "type": "function"
    },
    {
      "inputs": [],
      "name": "refund",
      "outputs": [],
      "stateMutability": "nonpayable",
      "type": "function"
    },
    {
      "inputs": [],
      "name": "seller",
      "outputs": [
        {
          "internalType": "address",
          "name": "",
          "type": "address"
        }
      ],
      "stateMutability": "view",
      "type": "function"
    },
    {
      "inputs": [],
      "name": "state",
      "outputs": [
        {
          "internalType": "enum Escrow.State",
          "name": "",
          "type": "uint8"
        }
      ],
      "stateMutability": "view",
      "type": "function"
    }
  ],
  "bytecode": "0x608060405234801561001057600080fd5b50604051610c7d380380610c7d83398181016040528101906100329190610189565b33600060016101000a81548173ffffffffffffffffffffffffffffffffffffffff021916908373ffffffffffffffffffffffffffffffffffffffff16021790555081600160006101000a81548173ffffffffffffffffffffffffffffffffffffffff021916908373ffffffffffffffffffffffffffffffffffffffff16021790555080600260006101000a81548173ffffffffffffffffffffffffffffffffffffffff021916908373ffffffffffffffffffffffffffffffffffffffff16021790555060008060006101000a81548160ff0219169083600381111561011a576101196101c9565b5b021790555050506101f8565b600080fd5b600073ffffffffffffffffffffffffffffffffffffffff82169050919050565b60006101568261012b565b9050919050565b6101668161014b565b811461017157600080fd5b50565b6000815190506101838161015d565b92915050565b600080604083850312156101a05761019f610126565b5b60006101ae85828601610174565b92505060206101bf85828601610174565b9150509250929050565b7f4e487b7100000000000000000000000000000000000000000000000000000000600052602160045260246000fd5b610a76806102076000396000f3fe60806040526004361061007b5760003560e01c8063aa8c217c1161004e578063aa8c217c14610104578063c19d93fb1461012f578063d0e30db01461015a578063fe25e00a146101645761007b565b806308551a5314610080578063590e1ae3146100ab5780635e10177b146100c25780637150d8ae146100d9575b600080fd5b34801561008c57600080fd5b5061009561018f565b6040516100a291906106c6565b60405180910390f35b3480156100b757600080fd5b506100c06101b5565b005b3480156100ce57600080fd5b506100d7610350565b005b3480156100e557600080fd5b506100ee6104eb565b6040516100fb91906106c6565b60405180910390f35b34801561011057600080fd5b50610119610511565b60405161012691906106fa565b60405180910390f35b34801561013b57600080fd5b50610144610517565b604051610151919061078c565b60405180910390f35b610162610528565b005b34801561017057600080fd5b5061017961065f565b60405161018691906106c6565b60405180910390f35b600160009054906101000a900473ffffffffffffffffffffffffffffffffffffffff1681565b600260009054906101000a900473ffffffffffffffffffffffffffffffffffffffff1673ffffffffffffffffffffffffffffffffffffffff163373ffffffffffffffffffffffffffffffffffffffff1614610245576040517f08c379a000000000000000000000000000000000000000000000000000000000815260040161023c90610804565b60405180910390fd5b6001600381111561025957610258610715565b5b60008054906101000a900460ff16600381111561027957610278610715565b5b146102b9576040517f08c379a00000000000000000000000000000000000000000000000000000000081526004016102b090610870565b60405180910390fd5b600060019054906101000a900473ffffffffffffffffffffffffffffffffffffffff1673ffffffffffffffffffffffffffffffffffffffff166108fc6003549081150290604051600060405180830381858888f19350505050158015610323573d6000803e3d6000fd5b5060036000806101000a81548160ff0219169083600381111561034957610348610715565b5b0217905550565b600060019054906101000a900473ffffffffffffffffffffffffffffffffffffffff1673ffffffffffffffffffffffffffffffffffffffff163373ffffffffffffffffffffffffffffffffffffffff16146103e0576040517f08c379a00000000000000000000000000000000000000000000000000000000081526004016103d7906108dc565b60405180910390fd5b600160038111156103f4576103f3610715565b5b60008054906101000a900460ff16600381111561041457610413610715565b5b14610454576040517f08c379a000000000000000000000000000000000000000000000000000000000815260040161044b90610948565b60405180910390fd5b600160009054906101000a900473ffffffffffffffffffffffffffffffffffffffff1673ffffffffffffffffffffffffffffffffffffffff166108fc6003549081150290604051600060405180830381858888f193505050501580156104be573d6000803e3d6000fd5b5060026000806101000a81548160ff021916908360038111156104e4576104e3610715565b5b0217905550565b600060019054906101000a900473ffffffffffffffffffffffffffffffffffffffff1681565b60035481565b60008054906101000a900460ff1681565b600060019054906101000a900473ffffffffffffffffffffffffffffffffffffffff1673ffffffffffffffffffffffffffffffffffffffff163373ffffffffffffffffffffffffffffffffffffffff16146105b8576040517f08c379a00000000000000000000000000000000000000000000000000000000081526004016105af906109b4565b60405180910390fd5b600060038111156105cc576105cb610715565b5b60008054906101000a900460ff1660038111156105ec576105eb610715565b5b1461062c576040517f08c379a000000000000000000000000000000000000000000000000000000000815260040161062390610a20565b60405180910390fd5b3460038190555060016000806101000a81548160ff0219169083600381111561065857610657610715565b5b0217905550565b600260009054906101000a900473ffffffffffffffffffffffffffffffffffffffff1681565b600073ffffffffffffffffffffffffffffffffffffffff82169050919050565b60006106b082610685565b9050919050565b6106c0816106a5565b82525050565b60006020820190506106db60008301846106b7565b92915050565b6000819050919050565b6106f4816106e1565b82525050565b600060208201905061070f60008301846106eb565b92915050565b7f4e487b7100000000000000000000000000000000000000000000000000000000600052602160045260246000fd5b6004811061075557610754610715565b5b50565b600081905061076682610744565b919050565b600061077682610758565b9050919050565b6107868161076b565b82525050565b60006020820190506107a1600083018461077d565b92915050565b600082825260208201905092915050565b7f4f6e6c7920617262697465722063616e20726566756e64000000000000000000600082015250565b60006107ee6017836107a7565b91506107f9826107b8565b602082019050919050565b6000602082019050818103600083015261081d816107e1565b9050919050565b7f526566756e64206e6f7420616c6c6f7765640000000000000000000000000000600082015250565b600061085a6012836107a7565b915061086582610824565b602082019050919050565b600060208201905081810360008301526108898161084d565b9050919050565b7f4f6e6c792062757965722063616e20636f6e6669726d00000000000000000000600082015250565b60006108c66016836107a7565b91506108d182610890565b602082019050919050565b600060208201905081810360008301526108f5816108b9565b9050919050565b7f43616e6e6f7420636f6e6669726d000000000000000000000000000000000000600082015250565b6000610932600e836107a7565b915061093d826108fc565b602082019050919050565b6000602082019050818103600083015261096181610925565b9050919050565b7f4f6e6c792062757965722063616e206465706f73697400000000000000000000600082015250565b600061099e6016836107a7565b91506109a982610968565b602082019050919050565b600060208201905081810360008301526109cd81610991565b9050919050565b7f416c7265616479206465706f7369746564000000000000000000000000000000600082015250565b6000610a0a6011836107a7565b9150610a15826109d4565b602082019050919050565b60006020820190508181036000830152610a39816109fd565b905091905056fea264697066735822122058f9b253a91afe5fc6cfafdbdeefe5fdfa0e521b3303ce1163a872930b2095d664736f6c634300081c0033",
  "linkReferences": {},
  "deployedLinkReferences": {}
}